:020000040000FA
:060000000212EE0207AF40
:03001B000207D207
:03002B0002110CB3
:03003300020ED6E4
:03004300020FC1E8
:030053000206E0C2
:03006B00020EBCC6
:0300730002082759
:100083000207440101FF01010503010F10FEFF5C9C
:100093001B5C1B5C1B5C1B121A0C1A5C1B97280055
:1000A3000000005B29000000000C0000000C0001B0
:1000B300FFFF0B10055E8800010101000706000029
:1000C300007C06E80364006400B801020200080033
:1000D30000050207051E02051E020A0A03B80B02E9
:1000E300803E0102F1FF011496511800020206300E
:1000F300313233343536373839414243444546008B
:10010300286E756C6C20706F696E74657229003F80
:100113003F3F000000807F0000803FF9021550B789
:1001230043BA510000204100E7DB2E0000A040103D
:10013300000000080000000A00000012133A6046A5
:1001430012130D603DE9687008F618F618F618F6F4
:1001530022748067F7120172090909748067F72214
:1001630012130D601D12133A7005191919801A1212
:1001730011C1701F1211D6C37003E6673319191921
:1001830040071818182208080874FFF618F618F61E
:1001930018F6221211D66017121379702192F012F9
:1001A30013837019501720F014080808090909E788
:1001B300F61819E7F61819E7F61819E7F6221213D5
:1001C3008360E6E869701F0808E62480F608E436D1
:1001D300F618547FB47F0CE654806007F6E418F6F3
:1001E30018F622181822E9C6CC08C6CD08C6CE08D0
:1001F300C6CFC0E0E8C0E0EAC0E0EBC0E009E9F840
:1002030009E7FA09E7FBE6F918E6F8C3EC98ED9974
:10021300EE9AEBC2E7F5F0EFC2E795F0500E600CF3
:10022300EBCFFBEACEFAE9CDF9E8CCF8EAA2E7D2C4
:10023300E7FAEB33FB13F5F0EEA2E7D2E7FEEF3379
:10024300FFC5F013A2E730E601B313C5F0C3C0E066
:10025300C0F07F00C39BFB605B9418600C401AD016
:10026300E023F9D0E0F80203418AF0E9486003D2C1
:10027300F0E4AFF0FAF9F8803BEB30E40D89F0EAF3
:100283006003D2F0E4AFF0F9CAF8EB30E30D88F085
:10029300EF6002D2F0AFF0E4CAC9F8EB5407601480
:1002A300FBC3EA13FAE913F9E813F8EF135002D288
:1002B300E0FFDBEDD0E0C0E030E739C3E49FFFF5BA
:1002C300F0EC98FC42F0ED99FD42F0EE9AFE42F01C
:1002D300D0E0F9D0E0F8E5F0607AE923F9EE20E721
:1002E30042D8028067C3EF33FFEC33FCED33FDEEFE
:1002F30033FE80EAEC28FCED39FDEE3AFED0E02334
:10030300F9D0E0F84002801BC3EE13FEED13FDECC1
:1003130013FCEF135002D2E0FF08B800067F7F748E
:10032300FF802EEF3350178CF020F00260100CBCCE
:10033300000C0DBD00080EBE000408E860DFE933C1
:10034300E813FFEE2313FE4F4D4C8008E95480FF62
:10035300E4FEFDFCEE33EF33F47004FCFD7E80D04D
:10036300E0FBD0E0FAD0E0F8D0E0CFC618CEC61854
:10037300CDC618CCC6F92212130D70041818182212
:1003830012133A700D74FFF61819F61819F61819A6
:10039300F622E7548066F6121383700F12137970F6
:1003A300F014F608F608F608F680D1121379700CEB
:1003B300F608F608768008E6447F80EC1211D970BF
:1003C3000C1211C460BFE65480F6E480BB1211C462
:1003D300700519191980A5E869700C763F187680A5
:1003E30018F618F6E8F922E6CDC0E018ECC0E0E60E
:1003F30033CD33CDD313F6E719FCE7191933CC33D7
:10040300C3947F400ECD9D502408E65480F6E41833
:10041300F6800FF4043D14501408E6447FF6187672
:1004230080E418F618F6D0E0FCD0E0FD22CCD3131C
:10043300CCFD18E4C6CBC0E018E4C6CAC0E0080887
:10044300ED08C633E613F618E433C675F003C3CAE2
:1004530097CA09CB97CB199C40047D08802EBD0019
:100463000302052316B6FF050606081618C3CA338A
:10047300CACB33CB33CA27CA09CB37CB193CC37D8D
:1004830008803E187D0820E75CC633C6CA33CACB52
:1004930033CB33DDF1D5F0EB30E77BCA97CA09CB19
:1004A300974ACB199C406F4B7025E620E02180666C
:1004B300187D08C3CA97CA09CB97CB199CD3C633F7
:1004C300C6CA33CACB33CB3350C9DDE7D5F0E1D34A
:1004D300E4C636C608C636C608C636C608C636C615
:1004E3001818188031C3CA97CA09CB97CB199CB384
:1004F3004097C633C6CA33CACB33CB33DD34D5F0CA
:100503002EC6A2E0C640C8CA27CA09CB37194A700B
:10051300BECB3CB480B90808E63308E633601F1845
:100523001818D0E0FAD0E0FBD0E0FCD0E0FD2218B0
:100533007D08CA27CA09CB37CB193CD3808013F671
:1005430018E4B67F11F618B6FF0EF618C60470D27B
:100553000808768080CAF618F618F680C5001213CC
:100563000D604F12133A6012E7548066F61211C100
:100573007011121379703B090909F4F618F618F68D
:1005830018F6221211D6701512138308080860EAB0
:10059300E6447FF618768018E4F618F622121383E1
:1005A30060161213797012E4F608F608F608E6549A
:1005B30080F609090918181822EAC0E0EBC0E0EC3C
:1005C300C0E0EDC0E0E687F0A4FBACF008E687F0FE
:1005D300A42CFCE435F0FA1809E687F0A42C4B6050
:1005E300027401CA35F0FCE433FB09E687F0D2F765
:1005F300A42CCB35F0FC1908E687F0A42BCC35F0FE
:10060300FBE433FD0819E687F0D2E7A42C4ACB3587
:10061300F0CD3400FC09E687F0D2E7A42DCC35F009
:10062300FDE433FA0918E687F0D2F7A42CCD35F0B0
:10063300CA3400FC08E687F0D2E7D2F7A42ACC3507
:10064300F07A7E20E70B0ACB33CBCD33CDCC33CC42
:1006530033CB3350147004ED30E00ED2F1E4CD3DD2
:10066300CDCC3CCC3B5005DA05C2F1EB547FC6330D
:1006730008E63392F0FBE73309E733C39A502D2B97
:1006830070190C0D4C4D70151806E608C333700D28
:1006930020F10AA2F013F6E418800B4024E4F630AC
:1006A300F002768018F618F618F68024D33B14501F
:1006B3001074FFA2F013F6187680E418F618F6808B
:1006C3000FA2F013F618E63303F618ECF618EDF65E
:1006D300D0E0FDD0E0FCD0E0FBD0E0FA22C0E07433
:1006E300F2120B76A2AFE433FED2AFE5A7FFE5A18A
:1006F300F5085F541060061222D675A1EFE5085F76
:10070300540860081222DC75A1F7802BEFA2E0C029
:10071300D0E508A2E092F012124C158182F0501736
:10072300906198E0F8900EA3E0C398A2D265D0330D
:100733005002E8F075A1FEEEA2E092AF7F01020B3A
:10074300D5C0E074F2120B76A2AFE433FED2AF90C1
:1007530061A4E0F8759B00E5915854086008759111
:10076300F7122324802AE59158541060087591EFFD
:1007730012232A801BE8A2E0C0D0E591A2E092F008
:1007830012124C158182F05007E0C2E0F012246E81
:100793009061A3E0F8E5E9585404600E122444750F
:1007A300E9FB906193E0A2E640F2808BC0E074F233
:1007B300120B76A2AFE433FED2AF9061A5E0F8E569
:1007C300BF585404600675BFFB12248602073AC063
:1007D300E0C0D0E8C0E0E9C0E0C082C083E5F9C072
:1007E300E0900E0FE0F8748E28F582740D3400F556
:1007F30083D0E0F0900E0EE0F8A3E0687006E59574
:10080300900E11F0900E0FE004F0C394804002E4C8
:10081300F0A374C6F0D083D082D0E0F9D0E0F8D052
:10082300D0D0E032C0E0C0D0E8C0E0C008C009C00A
:1008330082C083900E92E0F8A3E0687008539AF7A1
:10084300A374018026C2EA900E92E0F50874012594
:1008530008F074122508F582740E3400F583E0F570
:10086300F9900E92E0C394804002E4F0D083D082EA
:10087300D009D00880A6C3E498F8E499F91208BA1D
:100883008026C3E49AFAE49BFBE920E7E91208BA5D
:10089300E498F8E499F922C3E498F8E499F9120882
:1008A300BAE498F8E499F9C3E49AFAE49BFB22EBDF
:1008B30020E7CFE920E7E0B90010BB0008E88AF0A1
:1008C30084F8AAF022E4FBC8FA22EB70227B10C85A
:1008D30033C8C933C9335007C39AC3DBF280069ABE
:1008E30050012ADBEAC833F4C8C933F4C9FA2275C4
:1008F300F008E4C833C8C933C933C99AC99B500443
:10090300C92AC93BD5F0ECFBC833F4C8E4C9FA22C1
:1009130012095320F01430E72B74FFFCFBFA747FA9
:100923008022E4FCFBFA7480801AB48008BC00F2D5
:10093300BB00EF800F50EBF9E4C39AFAE49BFBE4AE
:100943009CFCE499C6CC18C6CB18C6CA18C6F922B3
:10095300E4C9C608CAC608CBC6D3330308CCC6331A
:1009630092F0C3947F402E94184019C9B90704CA62
:10097300CBCC225025C309CA33CACB33CBCC33CC1F
:1009830033D9F422F4600DC9CCC313CB13CBCA13F0
:10099300CAD9F6CC22E4FCFBFA2214FCFBFA2208A7
:1009A3000808EAC0E0EBC0E086F0E7A4FA1809867D
:1009B300F0E7A42AFA180986F0E7A42AFA180986A8
:1009C300F0E7A42AFA1986F0E7A4FBE5F02AFA195E
:1009D3000886F0E7A42BFBE5F03AFA190886F0E75E
:1009E300A42BFBE5F03AFA18180986F0E7A4C5F042
:1009F3002BFBE43AFA1908E7C5F0C6A426F6E5F09E
:100A03003BFBE43AFA1886F0E7A4F6E5F00826F68D
:100A1300E43B08F6E43A08F6D0E0FBD0E0FA22081B
:100A23000808E630E7111211FF120A3A080808C64F
:100A33004480C618181822181818E9799EC608CADF
:100A4300C608CBC608CCC6C370207996CACBCC7077
:100A530019798ECBCC70137986CC700EF9802ACAA3
:100A630033CACB33CBCC33CC331930E7F2CCCBCA3C
:100A73003350147004EA30E00DE4CA3ACACB3BCBDE
:100A8300CC3CCC500209C3E913C6CC182313C6CB04
:100A930018C6CA18C6F922E4CFC0E0E4CEC0E0E429
:100AA300CDC0E0E4CCC0E075F020C3E633F608E641
:100AB30033F608E633F608E633F6181818EC33FC79
:100AC300ED33FDEE33FEEF33FFC3EC9709ED9709EA
:100AD300EE9709EF97191919400FFFEC97FC09EDF1
:100AE30097FD09EE97FE191906D5F0BEECF709ED4F
:100AF300F709EEF709EFF7191919D0E0FCD0E0FD7B
:100B0300D0E0FED0E0FF222518C582C0E0E519340D
:100B1300FFC583C0E0E518C3958224F810AF0885AC
:100B230083198582188008858319858218D2AFCEF0
:100B3300F0A3E520F0A37808E608F0A3DEFAEFF0CF
:100B4300A3E58124FAF8E608F0A3E608F0A3E60893
:100B5300F0A30808E608F0A3E608F0A315811581C1
:100B6300D0E0FED0E0F8158115811581E8C0E0EEF4
:100B7300C0E022C0D02518C582C0E0E51934FFC506
:100B830083C0E0E518C3958224F310AF0885831969
:100B93008582188008858319858218D2AFC8F0A38F
:100BA300E9F0A3EAF0A3EBF0A37908E709F0A3D8EF
:100BB300FAECF0A3EDF0A3EEF0A3EFF0A3D0E0F096
:100BC300A3D0E0F0A3D0E0F0A3E520F0A3E5F0F09C
:100BD300A322851983851882E0C0E0A3E0F9A3E08E
:100BE300FAA3E0FBA37808E0F608A3DFFAE0FCA38E
:100BF300E0FDA3E0FEA3E0FFA3E0C0E0A3E0C0E0CC
:100C0300A3E0F5D0A3E0F520A3E0A3F5F010AF082F
:100C13008583198582188008858319858218D2AF48
:100C2300D082D083D0E0F8D0E03212136EB9000343
:100C3300020C6FE4900301786A79128002F0A3D862
:100C4300FCD9FA90146AAA82AB8390008678B979AA
:100C5300018015E493A3AC82AD838A828B83F0A3D6
:100C6300AA82AB838C828D83D8E9D9E77582ED752F
:100C730083F0740312108475829E758327740012A7
:100C830010840E000975F0108E1A8F1B85821F8544
:100C9300831E851882851983E0CEA3E0CF851F824A
:100CA300851E83EBC9EAC8EDCBECCAC3E833C8E9B8
:100CB30033C9EA33CAEB33CBC3EA9EF51DEB9FF589
:100CC3001CB35004AB1CAA1DEC33CCED33CDD5F0D3
:100CD300DAAE1AAF1B2212130D601C12133A6017FF
:100CE30012138370071213797001D322C0D0121329
:100CF300797006D0D0B322C32233D0D0501430E061
:100D0300F6C3E7960809E7960809E7960809E79600
:100D1300B32220E0D5E6970809E6970809E6970885
:100D230009E697B322D083D082ECC0E0EDC0E0E4C3
:100D330093A3FCE493A3FDED4C600D120E4CEC2445
:100D4300FFFCED34FFFD80EFE493A3FCE493A3FDEC
:100D5300ED4C600D120F46EC24FFFCED34FFFD80DB
:100D6300EFD0E0FDD0E0FCE493A3C0E0E493C0E067
:100D73002212130D601B12133A60161213837007AD
:100D8300121379600CB322C0D01213797005D0D03E
:100D930022C32233D0D0501330E0EBC3E7960809C7
:100DA300E7960809E7960809E7962220E0E4E69724
:100DB3000809E6970809E6970809E6972285198343
:100DC300851882E0A3FEE0A3F5207808E0A3F608E7
:100DD300DFFAE0A3FFE0A3C0E0E0A3C0E0E0A3C02C
:100DE300E0E0A3C0E0E0A3C0E010AF08858218856F
:100DF30083198008858218858319D2AFD083D08266
:100E030002108AD083D082E9C0E0E493A3C386F0C2
:100E1300C5F095F0F908E493A386F0C5F095F0705A
:100E23000BE493A3C3994005E9048002A3E475F09E
:100E330002A42582F582E5F03583F583D0E0F9E459
:100E430093A3C0E0E493C0E022C0E0C3E493960818
:100E53007401939618400FE4936670080874019325
:100E6300661870007019A3A3C3E4939608740193E2
:100E73009618A3A3400DD0E0D0E0D0E0020D64A308
:100E8300A3A3A3A3A3D0E02274048004740280006C
:100E9300CCC0E0EDC0E0E518C39CCCAD1950011DFA
:100EA30010AF068C188D1980068C188D19D2AF12CD
:100EB3001006D0E0FDD0E0FC22C0E074F2120B7605
:100EC300E589A2E15003122198758900C2C57F010B
:100ED300020BD5C0E074F2120B76E58BA2E050034F
:100EE300122198758B00C2E880E474028000CCC0A4
:100EF300E0EDC0E0E518C39CCCAD1950011D10AF67
:100F0300068C188D1980068C188D19D2AF120FE438
:100F1300D0E0FDD0E0FC2212130D602512133A60DD
:100F2300201213837003021379080808E766701010
:100F33001819E766700A1819E76670041819E76646
:100F430022F422C0E0C0F088F0E4936670080874CD
:100F5300019366187000A8F0A3A3700BD0F0D0E043
:100F6300D0E0D0E0020D64A3A3D0F0D0E022D08380
:100F7300D082CCC0E0E493A360061210651470FA2B
:100F8300E493A3600612116C1470FAD0E0FCE493AE
:100F9300A3C0E0E493C0E022C008C3E096F50808CC
:100FA300A3E096420808A3E096420808A3E096420D
:100FB30008A2D265D033E5087001D3D00822C0E07F
:100FC30074F2120B76A2AFE433FED2AFC2C0E5D106
:100FD300A2E45003122240EEA2E092AF7F01020B83
:100FE300D5CAC0E0E493A3C582CCC582C583CDC571
:100FF30083F0A3C582CCC582C583CDC583DAE5D092
:10100300E0CA22CAC0E0E0A3C582CCC582C583CDB5
:10101300C583F0A3C582CCC582C583CDC583DAE67B
:10102300D0E0CA227009080808226016181818C6EA
:10103300C333C608C633C608C633C608C633C6D5C7
:10104300E0EA22C008C3E096F50808A3E096420848
:1010530008A3E096420808A3E09645087001D3D0A0
:101063000822C0E0E493A3D39C5010E493A3C39C51
:10107300400AD0E0D0E0D0E0020F8EA3A3A3D0E0DB
:1010830022C09FF59FE473D09F22D083D082C09F5C
:10109300E493C0E0740193C0E0740293F59F2225AA
:1010A30018F58210AF08F518400215198008F518D5
:1010B30040021519D2AF851983227404800A740380
:1010C3008006740280027401C0E0F4041210A2D0FE
:1010D300E012134922BB0102E722C082C083898246
:1010E3008A83BB0003E08002E493D083D08222C0D2
:1010F300D0251810AF08F518500205198008F51807
:1011030050020519D2AFD0D022C0E0C0D0E8C0E071
:10111300E5A8D2AFC2C7A2E792AFD0E0F8D0D0D053
:10112300E0326016080808C6C313C618C613C618EB
:10113300C613C618C613C6D5E0EA22C3E0C696F6A0
:1011430008A3E0C696F608A3E0C696F608A3E0C691
:1011530096F622251810AF08F518400215198008D5
:10116300F51840021519D2AF22C0E0E493A36C70C6
:1011730009D0E0D0E0D0E0020F8EA3A3D0E022C3D9
:10118300E09608A3E09608A3E09608A3E096A2D20F
:1011930065D03322E066701008A3E066700A08A3E6
:1011A300E066700408A3E06622E76670100809E7AA
:1011B30066700A0809E76670040809E766221818CA
:1011C30018E6084608700AE608C3337005E633F4E8
:1011D300220822191919E7094709700AE709C333D5
:1011E3007005E733F4220922C3E096F008A3E096E2
:1011F300F008A3E096F008A3E096F022181818E48C
:10120300C396F608E496F608E496F608E496F62202
:10121300E026F608A3E036F608A3E036F608A3E0D6
:1012230036F622E026F008A3E036F008A3E036F015
:1012330008A3E036F022E627F60809E637F60809A0
:10124300E637F60809E637F622C0E0E8C0E0E581B4
:1012530024FCF8E6A2E7D0E0F8D0E022E657F6084F
:1012630009E657F60809E657F60809E657F622E0B5
:1012730056F608A3E056F608A3E056F608A3E05690
:10128300F622700422600D18C6C333C608C633C6DF
:10129300D5E0F41822E647F60809E647F60809E61A
:1012A30047F60809E647F622E056F008A3E056F0B1
:1012B30008A3E056F008A3E056F022C6F4C608C619
:1012C300F4C608C6F4C608C6F4C622C3E09608A34B
:1012D300E09608A3E09608A3E09622C3E7960809E0
:1012E300E7960809E7960809E7962275D000758105
:1012F3004075180175190300020C2DE6F008A3E6EA
:10130300F008A3E6F008A3E6F022E6084608C313B4
:101313004608336002E633F422600C08C6C313C6E2
:1013230018C613C6D5E0F422E0F608A3E0F608A336
:10133300E0F608A3E0F622E7094709C31347093398
:101343006002E733F422CAC0E0E6F0A308DAFAD079
:10135300E0FA22EAF0A3EBF0A3ECF0A3EDF022E035
:10136300FAA3E0FBA3E0FCA3E0FD22E5C754F844A5
:1013730001F5C7790122E7C33319471947194722F2
:10138300E6C333184618461846222518F582E43575
:1013930019F58322C2AF75D69F0200002212108D69
:1013A3008D300012108D55310012108D1532001240
:1013B300108D59320012108D7E320012108DC13201
:1013C3000012108D0E330012108D66340012108D32
:1013D300EC340012108D0A350012108D34350012D2
:1013E300108D4E350012108D5D350012108D68354D
:1013F3000012108D28360012108D81360012108DC8
:1014030043370012108D4B370012108D0F38001226
:10141300108D7B380012108DA6390012108DB7394C
:101423000012108D2D3A0012108DBF3A0012108D4C
:10143300173B0012108DD73B0012108DFE3B00129C
:10144300108D103C0012108D633C0012108DA03CD7
:101453000012108DAD3C0012108D303E0012108D25
:10146300853F0012108DB73F0012108D4A400012C5
:10147300108D83400012108DCF400012108DEB4170
:101483000012108D34440012108D3F440012108D51
:101493004A440012108D54440012108D5F44001210
:1014A300108D79440012108D83440012108D8D44E9
:1014B3000012108D98440012108DC0440012108D3C
:1014C3001B450012108D3F450012108D634500121D
:1014D300108DC1450012108D05460012108D214656
:1014E3000012108D98460012108DD0460012108DF8
:1014F3001C470012108D79470012108D33480012DB
:10150300108D174A0012108D704A0012108DA04BD7
:101513000012108DC64B0012108D4F4D0012108D0E
:10152300CB500012108D9D520012108D6654001284
:10153300108D13550012108D7E560012108D1D57FD
:101543000012108D62570012108DCC570012108DAF
:10155300DB570012108D625A0012108D145C0012BA
:10156300108D815C0012108D605D0012108D795E0C
:101573000012108DF65F0012108D15600012108D91
:101583006A600012108D6F610012108D9761001256
:10159300108DEF610012108DCE620012108D126358
:1015A3000012108D5D630012108DC8630012108D40
:1015B30009650012108D6D650012108DBB66001257
:1015C300108D1B690012108D4C690012108D046B75
:1015D3000012108D596B0012108D5D6C0012108D6E
:1015E300FA6C0012108D536D0012108D066E0012EE
:1015F300108DA86E0012108D486F0012108DED6FC4
:101603000012108D6F890112108DAE890112108D99
:10161300F58B0112108D3F8C0112108D5A8D011222
:10162300108DCA8D0112108DFF8D0112108D738FD5
:101633000112108DF6910112108D1F930112108D5E
:10164300B5930112108DBD9C0112108D529D011294
:10165300108D39A00112108D2CA10112108D8DA1B6
:101663000112108DA9A20112108D8EA40112108DEA
:101673009FA60112108D09A70112108DDBA701127D
:10168300108D92A80112108D9CA80112108DCAA86A
:101693000112108D87A90112108D5EAA0112108DFF
:1016A30025AB0112108DD7AB0112108D00AC0112C6
:1016B300108D22AC0112108D78AE0112108D50AF37
:1016C3000112108D94AF0112108DFCAF0112108D19
:1016D300B4B00112108DE6B00112108D2AB10112BF
:1016E300108D60B10112108DACB10112108D01B2D9
:1016F3000112108D06B20112108D59B20112108D14
:101703007EB20112108D8DB30112108DF1B301124F
:10171300108D61B40112108DEDB40112108DBAB7A2
:101723000112108D9EB80112108D21BA0112108D75
:1017330057BC0112108D05BD0112108DB5BD0112EC
:10174300108DF6BF0112108D99C00112108DE0C0EB
:101753000112108D8CC20112108DA0C20112108DC6
:10176300AAC20112108DD2C20112108DDEC2011263
:10177300108DFDC20112108DE2C40112108D19C526
:101783000112108D23C50112108D59C50112108D40
:10179300A8C60112108DECC60112108D94C7011258
:1017A300108D77C80112108D22C90112108D6ECAD7
:1017B3000112108D6CCB0112108D12CC0112108D01
:1017C300A2CC0112108DB9CC0112108DF0CC0112F4
:1017D300108DFACC0112108D05CD0112108D23CD81
:1017E3000112108D67CD0112108DC4CD0112108D21
:1017F300E9CD0112108D03CE0112108D8FCE01128F
:10180300108DACCF0112108D19D00112108D00D1A3
:101813000112108D27D10112108D9BD10112108D51
:1018230016D20112108D1AD30112108D10D4011289
:10183300108DBFD40112108DD2D50112108D6ED62A
:101843000112108DFBD60112108DD9D70112108D04
:1018530011D80112108D69D80112108D32D90112DD
:10186300108D53D90112108DDAD90112108DFED9C2
:101873000112108D20DA0112108D69DA0112108D18
:101883007FDC0112108D66DD0112108D17DE01124F
:10189300108D4DE00112108D9DE00112108DDDE0E1
:1018A3000112108D1FE10112108D7BE10112108DC9
:1018B300A9E10112108DCDE10112108D20E2011278
:1018C300108D4EE20112108D87E20112108DDCE2C1
:1018D3000112108D42E30112108D96E40112108D56
:1018E300B9E60112108D26E70112108D4FE70112A0
:1018F300108DDAE70112108D41E80112108D8CE88A
:101903000112108DB0E80112108DD4E80112108D70
:101913002FE90112108D4AE90112108D03EA011219
:10192300108DB88F0412108DF78F0412108D7880EC
:101933000212108DBE800212108D9E810212108D34
:10194300A0820212108DA3830212108D2F85021222
:10195300108D8D850212108D4A860212108D6887B4
:101963000212108DD9870212108D15880212108D64
:1019730063880212108D6D880212108DB1880212D5
:10198300108D0D890212108DA8890212108D258ADF
:101993000212108DF48A0212108D8D8B0212108D9B
:1019A300AD8B0212108DE38B0212108D148C021278
:1019B300108DD58C0212108DE58C0212108D398D8D
:1019C3000212108D548D0212108D668D0212108D2D
:1019D3006F8D0212108DC98D0212108D258E021289
:1019E300108D718E0212108D8C8E0212108DBD8E91
:1019F3000212108DDA8E0212108DE68E0212108DF5
:101A03005A900212108D73900212108DDA90021206
:101A1300108DED900212108DFB900212108DAF917C
:101A23000212108D93920212108D99930212108D4F
:101A330023940212108D2D940212108D9A94021287
:101A4300108DB1940212108DE3940212108D1C9527
:101A53000212108D46950212108DA7950212108D59
:101A6300C7950212108DE5950212108D2B96021266
:101A7300108D51970212108D9E970212108DCD97E3
:101A83000212108D43980212108D6B980212108D62
:101A9300A4980212108DB2980212108D0A990212A4
:101AA300108D59990212108D98990212108DC899B0
:101AB3000212108DF4990212108DFF990212108DEB
:101AC3001D9A0212108DDF9A0212108DE99A0212EA
:101AD300108D249B0212108D3A9B0212108D8F9B46
:101AE3000212108DA39B0212108DB19C0212108D55
:101AF300C49C0212108DD99C0212108D7B9D021280
:101B0300108DFE9D0212108DBC9E0212108DC79E79
:101B13000212108DF39F0212108D0FA00212108D6E
:101B230061A00212108DA0A00212108DB5A00212A6
:101B3300108D17A10212108DA6A10212108DF1A112
:101B43000212108D42A40212108DC0A40212108D35
:101B530035A50212108D57A70212108D6FA702121E
:101B6300108D72A70212108D7EA70212108D92A7FC
:101B73000212108D9AA70212108DCDA70212108D9A
:101B83007DA80212108DF3A80212108D66A902120D
:101B9300108D1AAA0212108DCFAA0212108DEEAA6E
:101BA3000212108D8EAB0212108D9AAB0212108DA1
:101BB300C5AB0212108DC8AB0212108D32AC0212EB
:101BC300108D5AAD0212108D32AE0212108DBDAEC1
:101BD3000212108DD6AF0212108D93B00212108D27
:101BE300CCB00212108DFDB00212108DBBB10212E7
:101BF300108DEBB10212108DC6B20212108D5FB3BD
:101C03000212108DEAB30212108D9BB40212108DD2
:101C13001EB50212108D50B50212108D91B502122D
:101C2300108D65F50212108DCAF50212108D07F69C
:101C33000212108D56F60212108D6CF80212108DDE
:101C43004FFA0212108DB9FD0212108DF4FD02122B
:101C5300108D16FE0212108D79FE0212108DADFE4C
:101C63000212108DD0FE0212108DFDFE0212108D95
:101C730059FF0212108D2AA10312108DA8A103127D
:101C8300108DDEA10312108D4AA20312108DBDA385
:101C93000312108DD9A30312108D1EA40312108DED
:101CA300ACA40312108D05A50312108D32A60312E6
:101CB300108D44A70312108DA1A70312108DA82B1A
:101CC3000012108D6EA80312108DAFA80312108D91
:101CD3005CA90312108D6EAA0312108D99AA031228
:101CE300108DE4AA0312108D2BAB0312108DBDAB24
:101CF3000312108D78AC0312108D99830412108D8A
:101D0300C9830412108D1E840412108DE78E0412F1
:101D1300108D628F0412108DEFAC0312108DF9AC8D
:101D23000312108D45AD0312108DB3AD0312108D48
:101D3300D4AD0312108D84AE0312108DD52F001273
:101D4300108D21B10312108D74B10312108D9DB14A
:101D53000312108D04B20312108D95B20312108D6D
:101D6300D7B20312108D21B30312108D80B3031267
:101D7300108DACB30312108D3DB40312108D7CB4DF
:101D83000312108DBBB40312108DF0B40312108D27
:101D930002B50312108D14B50312108D33B503125F
:101DA300108D3CB50312108DF2B50312108D32B6AF
:101DB3000312108D3E8C0412108DC27D0012108D03
:101DC300F87D0012108D417E0012108D917F00125C
:101DD300108D3DEA0112108D7CEB0112108DB8EBD2
:101DE3000112108D77ED0112108DA0ED0112108DEF
:101DF30033F00112108D77F00112108D00F20112F1
:101E0300108D98F20112108D00F30112108DA1F3C1
:101E13000112108DE3F30112108D23F40112108DC2
:101E2300AEF50112108D1EF70112108D43F9011248
:101E3300108D71F90112108D98F90112108DA1F90D
:101E43000112108D28FA0112108D46FD0112108D1A
:101E5300F3900412108D09910412108D6D8F0412EA
:101E6300108D88ED0312108D9BED0312108D38EE4B
:101E73000312108D73EE0312108D8EEE0312108D6C
:101E8300B3EE0312108DF8EE0312108D29EF031237
:101E9300108D5AEF0312108DE0F00312108D868619
:101EA3000412108DBC860412108DD8860412108D76
:101EB3001A870412108D2A870412108DBF8704120B
:101EC300108DC9870412108DE1870412108DC7FD90
:101ED3000112108D06FE0112108D9AFE0112108D53
:101EE3009DFE0112108DA1FF0112108D00800312BF
:101EF300108D55800312108D3E810312108DD781F2
:101F03000312108D21820312108D83820312108D10
:101F130097820312108D79840312108DF4840312B7
:101F2300108D1E850312108DF7860312108D1287F4
:101F33000312108D61870312108D77870312108DA2
:101F430084870312108DB8870312108DD187031273
:101F5300108D71880312108DCB880312108D19898F
:101F63000312108D2C8A0312108D9D8C0312108D79
:101F7300CB8C0312108D598D0312108DBA8D031261
:101F8300108DBF8D0312108DFB8D0312108D5D8E8E
:101F93000312108D2D8F0312108D528F0312108D8B
:101FA3005C8F0312108D5F8F0312108DCE8F03127F
:101FB300108DE98F0312108DFC8F0312108D289062
:101FC3000312108D63900312108D66900312108D0F
:101FD300A2900312108D8EFF0312108DA6FF031221
:101FE300108D4BC70312108D9AC70312108D3CC975
:101FF3000312108DFACA0312108D42CB0312108DF7
:1020030064CC0312108D95CD0312108DB7CD03123E
:10201300108D13CE0312108D95CE0312108D51E443
:102023000212108D7CE40212108D69E50212108DEC
:10203300EEE50212108D57E60212108DA3E602128E
:10204300108D22E70212108DB4E70212108D40E8C2
:102053000212108D82E80212108DEEEC0212108D26
:102063006EEE0212108D3EEF0212108D65EF02121A
:10207300108DC6F10212108D52F20212108D6CF304
:102083000212108D4BF40212108DCDF40212108D3A
:1020930039700012108DF3700012108D65710012EB
:1020A300108D01720012108D71720012108D2A753D
:1020B3000012108D01760012108D6E760012108DB5
:1020C300EB770012108DB5780012108DFC79001299
:1020D300108D0F7B0012108DA87B0012108D6E7C6B
:1020E3000012108DB2F30312108D06F40312108D3B
:1020F3005EF40312108DA9F40312108D0BF5031275
:10210300108DA4F50312108D0CF60312108D18F622
:102113000312108D00800412108D31800412108D73
:10212300EB800412108D51810412108D78F103128B
:10213300108D04F30312108DA0900412108DB19032
:102143000412108DDA810412108DE8810412108DAF
:1021530031910412108D518E0412108D618E041270
:10216300108D7C8E0412108DDD8E0412108D3C8B2D
:102173000412108DC18B0412108D258C0412108D46
:102183002A8A0412108D4C8A0412108DB68A041206
:10219300108DC18A0412108D058B0412108DC9CEC7
:1021A3000312108D58CF0312108D66CF0312108DBA
:1021B300A7CF0312108DC1CF0312108D3ED003128F
:1021C300108D38D10312108D5DD10312108D7AD189
:1021D3000312108D97D10312108DCBD10312108DE2
:1021E300F0D10312108D38D20312108DB3D2031223
:1021F300108DC3D30312108D7EE60312108D8CE66F
:102203000312108D06E70312108DEAE70312108DF7
:10221300A3E90312108DDCFF0312108D97BF031285
:10222300108D05C00312108DAEC00312108D2DC189
:102233000312108D45C20312108D07C40312108DB3
:102243006BC40312108DB3C40312108D05C50312A2
:10225300108DA1C50312108D3EC60312108D5DC6ED
:102263000312108DE7C60312108D08C70312108DD9
:1022730026C70312108D3FD90312108D94D9031270
:10228300108D90DB0312108DC2DB0312108DE4DB83
:102293000312108DFDDB0312108D16DC0312108D5B
:1022A30020DD0312108DBBDD0312108D2585041272
:1022B300108D49850412108D62850412108D958549
:1022C3000412108DC6850412108DF4850412108D2E
:1022D30056860412108D65860412108D6F860412C3
:1022E300108D7C860412108D53F60312108D79F62F
:1022F3000312108DB6F60312108DC5F60312108D5E
:10230300E4F60312108D4CF70312108D55F70312E8
:10231300108DB4F70312108DD8F70312108D97F8B0
:102323000312108DA4F80312108DB5F80312108D4B
:1023330001900412108D1E900412108D32DE0312D0
:10234300108D90DF0312108D9DDF0312108DB0DF0F
:102353000312108DCFDF0312108DE5DF0312108DF2
:10236300F9DF0312108D6EE00312108DD3E0031218
:10237300108D83E10312108D58E20312108D68E271
:102383000312108D77E20312108D188D0412108D35
:102393003C8D0412108D648D0412108D8C8D0412EB
:1023A300108DE3F80312108D0AF90312108D2BF927
:1023B3000312108D90F90312108D49FB0312108D37
:1023C30062FB0312108D6EFB0312108D82FB03124E
:1023D300108DA0FB0312108DAAFB0312108DB4FB0A
:1023E3000312108DC7FB0312108D1AFC0312108DFC
:1023F30053FC0312108D82FC0312108DD0FC0312C8
:10240300108D1FFD0312108D3AFD0312108D44FD34
:102413000312108D55FD0312108D9BFD0312108DB9
:10242300A5FF0212108D5BB60312108D85B6031241
:10243300108DA1B60312108DB4B60312108DCAB657
:102443000312108D27B70312108D5AB70312108D84
:1024530096BB0312108DBCBC0312108DEFBC03128C
:10246300108D3BBD0312108D67BE0312108D8FBEFE
:102473000312108DA4BE0312108DB4BE0312108D6F
:10248300F8BE0312108D59BF0312108D69BF0312DA
:10249300108DE4870412108DFF870412108D288895
:1024A3000412108D42880412108D67880412108D57
:1024B30086880412108D9E880412108DCC88041215
:1024C300108DE6880412108DB9FF0112108D08EAF1
:1024D3000312108D0FEA0312108D1BEB0312108DE4
:1024E3004BEB0312108D71EB0312108D94EB03125F
:1024F300108DB6EB0312108DF0EB0312108D56EC1A
:102503000312108D8FEC0312108DDBEC0312108D70
:1025130008ED0312108D28ED0312108DA6FD031292
:10252300108DBEFD0312108DACFE0312108D8BFFB8
:102533000312108D17890412108D89890412108DCE
:10254300C7890412108D088A0412108DB0E2031299
:10255300108DCFE20312108D1EE30312108D3AE3A8
:102563000312108D6BE30312108D7BE30312108DA6
:1025730088E30312108D95E30312108D81E4031297
:10258300108DBFE40312108DC9E40312108DD9E539
:102593000312108DE4E50312108DF6E50312108D7E
:1025A300FFE50312108D09E60312108D82D4031286
:1025B300108DC7D80312108DD5D80312108D7390C8
:1025C3000412108DB18D0412108DDB8D0412108D49
:1025D3003D900412108DCB900412108D13910412B0
:1025E300108DDB900312108DF9950312108D2AE4E0
:1025F3000212108D0CE40212108DD8E20212108D1B
:1026030035E20212108DE8E00212108D93DE021201
:10261300108D29DE0212108DE1DD0212108D53DDC3
:102623000212108D46DD0212108D252F0012108D1F
:10263300D42E0012108D40DA0212108DA2D702128E
:10264300108DAD2E0012108D692E0012108D6BD6D9
:102653000212108DBFD50212108D05D40212108DF7
:10266300B5D10212108D3CD10212108DE3D00212AB
:10267300108D73D00212108D4AD00212108D2ACE03
:102683000212108DF6CD0212108DC3CD0212108DE1
:10269300A7CD0212108DC0CC0212108D78CC02127D
:1026A300108DC3CA0212108D43CA0212108D40CA84
:1026B3000212108D41C90212108D0FC90212108D22
:1026C3004CC80212108D77C60212108D2E2E0012E6
:1026D300108D082E0012108DEF2D0012108D9B2DE2
:1026E3000012108DF72C0012108D08C60212108DE7
:1026F300DAC50212108DD7C50212108D6D2C00128F
:10270300108DC4C50212108D6FC50212108D5EC5E7
:102713000212108D50C40212108D0C2C0012108D59
:1027230018B10312108D1AC40212108DC8C30212FD
:10273300108D69C30212108D38C30212108D00C0B0
:102743000212108DC0BF0212108DB4BF0212108D81
:1027530014BF0212108D54BE0212108DD6BB02128A
:10276300108D67B90212108D25B90212108DF9B7B9
:102773000212108DAEB70212108DEDB60212108D3B
:10278300C6B50212108D30B60212108DBA2B00128C
:10279300108D00B60212108D0DA80300000080FBFF
:1027A300E473000136360101000102010001030157
:1027B30000010401060605020000070100340801B8
:1027C300000F090401010D0100FF0E0800001702AC
:1027D3000000190100FF1A0100011B0100FE1C018A
:1027E30000081D0200001F01000120010001210259
:1027F30000002301000F240200002601000127012D
:102803000008280200FF2A0100072B0102402C01C7
:1028130000002D0100012E0100012F0100FF3001F6
:102823000B1C310800003A0100083B01000F2F0187
:102833000000030271023001600211027002010202
:10284300020202028002100261023A0041006302A6
:102853007302720262024302000213023800000292
:10286300000204021202000200020002000204023B
:102873000402370037003C02440200023900000220
:102883000002650200023502810200020502820293
:102893008302000203007100300160001100700028
:1028A3003102200350048000100061000000140076
:1028B300630073007200620043000000130006000F
:1028C30000000000040012000000000000000000EF
:1028D30004000400370037003C02440000000000FD
:1028E30000000000650000003500810000000500C5
:1028F3000000830000000304710402046004110457
:1029030070040204020401040204100461040004BC
:102913001404630473047204620443040004130480
:102923000604000400040404120400040004000468
:10293300000451046400000400040004440400047F
:1029430000040004000465040004350481046400E9
:10295300050400048304000401037103010301035C
:102963000103010301032203020301031003000314
:1029730000030003000300030003000342030003FA
:1029830024030603000300030403120325032303A4
:102993002503230304030403000300030003440388
:1029A30000030003230300036503210035038103B0
:1029B300000305030003000300030101710101018A
:1029C3000101110101013101010101018001100126
:1029D30061013B0014006301730172016201430151
:1029E3000001130106013D0135000401120100013C
:1029F30000010001000104010401330133013C0122
:102A03004401320136000001000165010001350077
:102A130081010001050182018301000136000100EB
:102A2300060000000F00000000000000000000008E
:102A3300000003FFFF00000403FFFF0000FFFF0F80
:102A4300F4010005C4040320000100030B0000008F
:102A5300000000000003010F0000A82013006C20F9
:102A63000100A8200200362003003C20040042207D
:102A73000500482006005420FFFF0000014C160605
:102A830076160870160B8E1610C8150252160564BA
:102A9300160758160C2E160D4016FF000003EAF514
:102AA300E5D5D5C5B5A595958585757565655555E3
:102AB3004545353525251515056C1A9C1A721A7866
:102AC3001A961A8A1A841AA21AA81AAE1ABA1A7E5F
:102AD3001A661A601A00160F00000B150B0200028B
:102AE300220F320000065C1B6E1B741B361A7A1B06
:102AF300301A3C1A70196A19A619AC19A019581979
:102B0300BC1BDA1BE01BC21BCE1BC81B30301618C4
:102B13001920231A1C1E300C0E020B040B0A070883
:102B2300000F00383C3E363B3B352B432C303017EF
:102B3300181921301B1D1F30000119161816161500
:102B430023030000034948424D1817250502B01B13
:102B5300801B861B921B8C1B901AB41AD41BC01AA1
:102B6300C61A0204020101010109027C19821976C5
:102B730019B21900000000000088199A1900BE0458
:102B83000A150004007F00E8030C00280000000081
:102B9300000308100C0A03080900040001FF1E1EAD
:102BA3000C05040F08C082C0838A828B83E0D2E7BE
:102BB300F0121FA0023C5CC082C083790012307403
:102BC300125FC5C082C083900334124D4BD083D0B3
:102BD30082C3E09CA3E09D500C126699FAA3E01215
:102BE3002BEB600109023C5CFBEA75F00BA4FAA82D
:102BF300F075F00BEBA428FB900336E02AF8A3E072
:102C03003B8882F583E0540F2274F7120B0A89087C
:102C130012307412311AACF075F00BE9A42CF99050
:102C23000336E028FEA3E039FF74016508600674EB
:102C330002650870208A828B8312310612403C742D
:102C4300026508701B122FC512314D70138E828FCF
:102C530083E4F0800BEA2403FCEB1230E81230F437
:102C6300EEFAEFFB121CBE023F9974F4120B0A1228
:102C73006FC079008E828F83E06076890A890B802A
:102C830065E50A75F00BA4FAA8F075F00BE50B12D5
:102C93002BF87046E50A75F00BA4F8AAF075F00B53
:102CA300E50B12312C8E828F83E0850882850983A0
:102CB30012320E850882850983A312403CEE240359
:102CC300FCEF1230F1123E1A125A3FAA08AB091256
:102CD3001CBE7901900334125454E50A2401F50A09
:102CE300E50B3400F50B122FCDE50A9AE50B9B405B
:102CF300900241E674F5120B0AEAFEEBFF740B1225
:102D0300138D123E1F750A01EC4D602BEC126FDC24
:102D1300ED125FC5124034790112271AE5084509FF
:102D2300606F850882850983A3126FCA7902AA0896
:102D3300AB0912271A805AE5084509602B125FC9AF
:102D4300124693123E1B123137700CEEFAEFFB1250
:102D530026FCE9F50A80CBEE2403FA12306F7031BA
:102D63007903EEFAEFFB80CA8E828F83A3E064FEC1
:102D73007003A3E0F4700BEE24030A0A0A12306F07
:102D8300700CEEFAEFFB1226FCE9F50A8003750AD4
:102D930000A90A7F03020DC074F7120B0A900334D3
:102DA300123FA9EA4B602FEA75F00BA4FAA8F0755D
:102DB300F00BEBA428FBEAFEEBFF121DC6900336D3
:102DC300123FA99003361252996012EEFCEFFD797F
:102DD30000121D2A8007900336E4F0A3F0023F9906
:102DE300900334124A03C3EE98EF9922C082C08342
:102DF300EC4D600512254680097C087D00790012A0
:102E03001D2A023C5C74F6120B0A7900EA4B601827
:102E13007800880812630CEB1266956004790178D8
:102E23000808E8C3940840EA02404574F7120B0A05
:102E330074F3121156ECFEEDFF851882851983E4B5
:102E4300F00412138DEAF0A3EB1257C574031213A7
:102E53008DAC82AD83EEFAEFFB1226D8EEFAEFFBD0
:102E63001226D2023F9474F7120B0A74F31211560E
:102E7300ECFEEDFF851882851983E4F0EAFCEBFD97
:102E8300740312138D123207740112138D12403022
:102E93008E828F8312403C74FE68700374FF6960F6
:102EA30004790180027900023F9474F7120B0AEA55
:102EB300FEEBFF122F0B7014122F168E828F83E0FE
:102EC300F4F88A828B83E058F0121CBEA908023FF3
:102ED3009974F7120B0AEAFEEBFF7508008E828FD6
:102EE30083E06022122F0B701D122F168A828B83B0
:102EF300E08F838E82F8E058700CE0F88A828B832F
:102F0300E048F0121CBE80C412278CE9F508740156
:102F1300650822126FD512311E123060FAA3E03910
:102F2300FB2274F4120B0A8A088B097C007D0012C1
:102F33002FC51230F4123085126FC77900850882CD
:102F4300850983A3E064FE7003A3E0F460717E004F
:102F53007F008062EEFAEF122BEB6057EEFAEFFB85
:102F6300EA75F00BA4FAA8F075F00BEBA428FB901C
:102F73000336E02AF50AA3E03BF50B8508828509B1
:102F830083A3125713850A82850B83A3E06A700318
:102F9300A3E06B701EE50A2403FAE50B1230707090
:102FA3000AE50A2403FCE50B1230F11230797901AA
:102FB300125FDB123964122FCDEE9AEF9B4095021C
:102FC30041E6EA24030A0A0AEB22900334125BB2B5
:102FD300C32274F3120B0A8A088B098A828B83A398
:102FE300126FCA123074126FC7750C00122FC512FC
:102FF300307070547E007F008049123052FAA3E093
:10300300398A82F583E0540F6036123052F50AA3F1
:10301300E039F50BE50A2403FCE50B1230FB340021
:10302300FB122540E964017017850A82850B83A38F
:10303300125C73A312403C123079750C01125FDBF2
:10304300123964122DE340B2A90C7F05020DC0EEC4
:10305300F8EFF9E875F00BA4F812306022AAF075C6
:10306300F00BE9A42AF9900336E02822EF12314746
:1030730022126FDBEB22123085125FD6EEF0A3EF44
:10308300F022E508126FDCE5092274F5120B0AEA57
:10309300FEEBFF8E828F83A3126FCA7C007D00EE4E
:1030A30024030A0A0AEF1230F4EEFAEFFB12278C1C
:1030B300E9F50A7401650A7029126FD512311AAA4B
:1030C300F075F00BE912312C850882F58312310675
:1030D300123137700DE5082403FCE5091230E812BC
:1030E30030F4022D943400FDEE2403FAEF22123063
:1030F300FB3400FB1226D8223400FDE5082403FA32
:10310300E50922A312310B2212310F22E0F8A3E0CA
:10311300F98E828F83A32212311E223400F583128B
:103123004A07E875F00BA4F822123066F508A3E00D
:1031330039F50922E8F0A3E9F0E5082403FAE509E3
:103143001231472212314D6401223400FB1226D280
:10315300E92274F3120B0A74E6121156126FC0754A
:103163000C01750800750900750A00750B008518B8
:1031730082851983E4F0EE2403FCEF3400FD74032D
:1031830012138D123207E964017023740B12138D2D
:10319300124034740112138D1257177003A3E069A0
:1031A3006051851882851983858208858309740D8A
:1031B30012138DE412320E740E12138D12403C74EE
:1031C3000D12138DAA82AB8312262AE96401700BB8
:1031D300740D12138D85820A85830B780A1210C52C
:1031E300AC08AD09EEFAEFFB1226E474021210F2FA
:1031F300E9F50CEEFAEFFB122630A90C741A121043
:10320300F202304D1234DA121D3C22123FA4124A4C
:103213000322C082C0837800790080031233051231
:103223002FCDE89AE99B5029E8FAE9FBEA75F00B00
:10323300A4FAACF075F00BEBA42CFB900336E02A58
:10324300FCA3E03B8C82F583E0540F70CF790080C0
:10325300027901023C5CC082C083902B84124A59DC
:10326300EC75F012A4FCA8F075F012EDA428FD791A
:10327300FF7A127B0F121D2A023C5C74F7120B0AB1
:10328300E9FEEAFF7A007B00780079008028E8FCF9
:10329300E9FDEC75F012A4FC85F00875F012EDA4BD
:1032A300250812371AC39E400AE0FCEFC39C400373
:1032B30012383912330512370E40D3023F99C082B8
:1032C300C0837800790080031233051232F9501F4E
:1032D30012371EF470F2E875F012A4F8AAF075F034
:1032E30012E9A42AF9741228FA740F39FB80047ABC
:1032F300007B00023C5C902B841237CFC3E89AE931
:103303009B22E8240108E93400F92274F0120B0A25
:1033130074F31211568A0A8B0B8C0C8D0D8908ECF1
:10332300450D6016AA0CAB0D1213E88A0E8B0FAE77
:103333000EAF0FEE4F60030233CC1213BE8A0E8B17
:103343000FA80EA90FE8FEE9FFE849607C902B92D5
:1033530012342E60227403650860067404650870D5
:10336300167A0479031213B8902B9212344540074E
:103373007A007B0002342B902B9012342E601B7446
:10338300016508600674026508700F7A02790112FC
:1033930013B8902B9012344550D685188285198323
:1033A3007401F012138D125A3FAC0CAD0D7403125D
:1033B300138D1234D3740B12138D123E2712441C37
:1033C300E4125A271218B08004EE4F604A78007452
:1033D300FF2508C39404500278048E828F83125A07
:1033E3003F8E828F83A3A3A3A3E508F0E88E828F89
:1033F30083A3A3A3A3A3125A471208B21237E68EDC
:10340300828F83A3A3A3A3A3A3A3F01237DD121375
:1034130062125FBF121356123433400590146EE4E8
:10342300F012178AEEFAEFFB024A0D125B61492292
:103433007A0479001213B8902B8412667BEA98EB16
:10344300992212345E75832B758284E493C398F8B2
:10345300A3E49399F9C3EA98EB9922E493F87401EE
:1034630093F92274F2120B0A74F31211568A088B21
:1034730009ECFEEDFF750A00EEFAEFFB1213E88A82
:103483000C8B0DA80CA90DE849603E88828983E066
:1034930065087004A3E06509602F88828983A3A36C
:1034A300A3A3E0C394055021125E6D85188285198C
:1034B300837401F012138D125E71EEFCEFFD740341
:1034C30012138D1234D3750A01A90A740D02550B18
:1034D3001234DA1213A622AA82AB831226D88518D5
:1034E30082851983AA82AB832274F6120B0A1235E2
:1034F30028600FA3A3A3A3E014C394045004790189
:103503008002790002404574F6120B0A12352860D6
:103513000FA3A3A3A3E014C3940250047901800270
:1035230079000240451213E28A828B83E582458348
:103533002274F6120B0A123528600BA3A3A3A3E08F
:103543007004790180027900024045C082C083EA99
:10355300FCEBFD7A007B00023C59C082C0837C00F7
:103563007D00023C5974F4120B0A74F3121156EAEB
:10357300FEEBFF8C0A8D0BC3EC94F8ED94FF400730
:10358300EE4F7003023621750800750900802E8501
:1035930018828519837401F012398C12138D123934
:1035A3009A6013740312138DAC82AD83EEFAEFFBB2
:1035B300122540E97049E50824011237BA902B849B
:1035C300E4125B69E50898E509995052E50875F03E
:1035D30012A4F8AAF075F012E509A42AF91266AE4E
:1035E30060D4EE4F70A974FF650A700474FF650B15
:1035F30060C412397C650A7004A3E0650B70B7E5FB
:103603000875F012A4F508A8F075F012E509A428CE
:10361300F50974122508FA740F3509FB80047A0042
:103623007B000241E174F4120B0A74F31211567514
:1036330008001213E88A0A8B0BAE0AAF0BEE4F6039
:103643002A8518828519837401123F9EF8A3E0F935
:10365300740B12138D1240BF1226427C127D007927
:10366300FFEEFAEFFB121D2A7508011234335009DD
:1036730090146E7401F012178AA9080241E174F7DD
:10368300120B0AE9FE74FE6A700374FF6B7800790B
:10369300007005805212330512370E504AE8FCE9D8
:1036A300FDEC75F012A4FCAFF075F012EDA42F122F
:1036B300371AF460E0E8FCE9FDEC75F012A4FC7540
:1036C300F012EDA42FFD74122CF582740F3DF583D7
:1036D300E06A7003A3E06B70BC800912371E14C349
:1036E300940440171233051232F95018EE70EC129D
:1036F300371E64016005E0640370E912396DFAA3B3
:10370300E0FB80047AFE7BFF023F99902B84124AF0
:103713005DC3E89CE99D2212386E22E8FAE9FBEAD0
:1037230075F012A4FAACF075F012EBA42CFB74162E
:103733002AF582740F3BF583E0221213FA023C5CF4
:10374300C082C083790180F274F0120B0A8A0A8B5B
:103753000B7A0479011213B88A0C8B0DEA450D60BC
:103763003EEAC333FAEB33FB121DC68A088B09AE5C
:1037730008AF09EE4F60237AFE7BFF12140074FE3C
:103783006A700374FF6B601B850882850983123F8F
:10379300A9E50824021237BA80E1750C0080047E83
:1037A300007F00850A82850B83E50CF0EEFAEFFBC0
:1037B300024A12E5082407F508E5093400F5092251
:1037C300902B84124A5DC3EA9CEB9D22E493FA7426
:1037D3000193FB22121D1E740322125FD0E4F090AA
:1037E300891A22E88E828F83A3A3A3A3A3A3A3A3EF
:1037F3001238087401123808A3F0EE2410125FD3B4
:10380300E4F0A3F022124428A3A3A322C082C0831E
:103813007A007B008004191238391237C350101212
:103823003858C3940550F0E970EC12384280047A9A
:10383300007B00023C5CEA24010AEB3400FB22EA31
:1038430075F012A4FA75F012EBA428FB74122AFA8D
:10385300740F3BFB22EAFCEBFDEC75F012A4FCA811
:10386300F075F012EDA42812386E22FD74162CF5B3
:1038730082740F3DF583E02274F7120B0A74F3127E
:1038830011567E007F00023920E50875F017A4F871
:10389300A9F012690FFAA3E0FBEEF8EFF9E875F06F
:1038A30012A4F8ACF075F012E9A42C12397B6A70FB
:1038B30003A3E06B603FE50875F017A4F8AAF0EAEC
:1038C30012690EF8A3E0F9740112138DE068700316
:1038D300A3E0696020E50875F017A4F8EAF9748E8F
:1038E30028FC741039FD740312138DAA82AB831262
:1038F3002540E96014E50875F017A4F8A9F0748C65
:1039030028FA741039FB1218BC0508902B96E4931F
:10391300F8E508C398500302388C123964902B845D
:10392300126C555039EEF8EFF912396DF47003A3A8
:10393300E0F460E68518828519837401F0EEF8EFF0
:10394300F9E875F012A4F875F012E9A42AF912390E
:103953008C12138D12399A60C175080080AD023F35
:1039630094EE24010EEF3400FF22E875F012A4F860
:10397300AAF075F012E9A42AF912398022741228E8
:10398300F582740F39F583E022741428F582740FDD
:1039930039124A01740B22E8F0A3E91240C712134B
:1039A300A0E922C082C083900341745EF0A3741621
:1039B300F0023C5C74F7120B0AEAFEEBFF9003770C
:1039C300E06408601BE0640460168E828F83E05419
:1039D3000364017048123E1A124512E06406703DFA
:1039E3008E828F83A3A3E064FE7003A3E0F4602DB3
:1039F3008E828F83A3A3124030900368E068700324
:103A0300A3E069700BEE2415F582EF12669560084A
:103A1300121718E9F508800812171E80F67508C2F8
:103A2300EEFAEFFB121DCC022ECF74F4120B0A8AAE
:103A3300088B098A828B83E0F8A3E0FAE82AFAE488
:103A43003400FB121DC68A0A8B0BAE0AAF0BEE4F76
:103A53006063850882850983E0FC7D007900121D7F
:103A63002A8E828F83A3A3126FCA12175A8E828F54
:103A730083A3A3A3A3123FA9850882850983E0F842
:103A8300EE28F8EF3400124038850882850983A3B5
:103A9300E0C0E0EE240D125FC2D0E0F012176CEE2E
:103AA300240E125FC2E9125674E0C0E0EE24111234
:103AB3005FC2D0E0F0EEFAEFFB0241E674F4120BC2
:103AC3000A74EB1211568A088B098C0A8D0BE9FED6
:103AD300900377E064046005E06408700479C280B1
:103AE3002EA378081212FEEE90037E123C9A121255
:103AF300FE740512138DE9F0740412138D7401F032
:103B0300740712138DE4F09003777402123BF77479
:103B1300150241E374F6120B0A74EB121156EAFE16
:103B2300EBFF1252966003023BBB7A077B00121D28
:103B3300C6900339123FA912529660788E828F8302
:103B430012136290033A124515121356126E8EC069
:103B5300E0123BC7D0E0F0EE2405FAEF3400FB8A15
:103B6300088B098A82F583E0C0E0123BC2D0E012E1
:103B730041DDE0C0E0123BC2A3D0E012401D1213AE
:103B83006285188285198312135688828983E0C05F
:103B9300E0740512138DD0E0F0850882850983E077
:103BA300C0E0740412138DD0E0F0740712138D1269
:103BB3003BF68006791080027901741502404212A7
:103BC3003BC7A322900339E0FAA3E0F5838A82A3DB
:103BD300A3A3A322C082C083125296600D9003391F
:103BE300125BA0900339E4F0A3F012168812185C5C
:103BF300023C5CE41240C712257622C082C0839047
:103C03000338E07003122066121442804CC082C055
:103C130083900338E090146D7004E4F0802D7401F8
:103C2300F0900338E0F460237C41E0C394415002F8
:103C3300E0FCECF8E0C398F0EC75F0E8A4CCA8F055
:103C430075F003A428FD7A80124A657A6D7B147996
:103C53004112255E80031213EED083D08202108AB4
:103C630074F4120B0A74EB1211568A088B098C0A2E
:103C73008D0B9003777401123C9A1212FE74051295
:103C8300138DE9F0740412138D7403F07407121387
:103C93008D123BF6023B1212402878082274F71269
:103CA3000B0A7C01121454023F9974F2120B0A742A
:103CB300FC121156E9851882851983F0EAFEEBFFA1
:103CC3008C0A900375124D4B12167C8A088B09EAF5
:103CD3004509700579CA023E158A828B83A3A3A383
:103CE300A3A3A3A3E064FE7003A3E0F4700579C368
:103CF300023E159003751257131218C28508828568
:103D03000983A3A3A3A3A3A3A3A3A3A3E00490034F
:103D130088123F78740212138D7402F01412138DFB
:103D2300AA82AB831217C68A0C8B0DAE0CAF0DEEB5
:103D33004F7003023E0C123E1A1246877406F0A31C
:103D4300A882A983900362125BDD1249E0F0EE249E
:103D530013125FC27401125A1F7440F0A3E4125687
:103D63006DA3A3123E2712403CEE2411125FC2E55D
:103D73000AF0EEFAEFFB12141EE9FE6003023E0E98
:103D83009003777409F01237B6AA08FB794B122512
:103D93005E850882850983123F6A12403C90036A5C
:103DA300E0F8851882851983E068600CE090036A67
:103DB3001240C379E112255E9014AE124030901484
:103DC300B0E0687003A3E069601A90033B12403CC3
:103DD3009014B01257131217849014B0124D4B7AEB
:103DE30001124A657A007B049003C2E0F9121E8631
:103DF3009014B0123E1F74027808121285AC08ADFD
:103E030009FA7B04124A6780027E109005F0E4F001
:103E1300EEF9740402550BEE125FD122E0F508A30C
:103E2300E0F50922123E2B2212310FA32274F51260
:103E33000B0A74E2121156851882851983ECF0A3DC
:103E4300EDF0EAFEEBFF8908742912138DE0F50902
:103E5300742C12138DE0F50A900377E06404600577
:103E6300E06408700579C2023F62742A12138DE080
:103E730064FE7003A3E0F4700579C3023F6290030C
:103E83007774031240C3795012255E742A12138D7E
:103E9300AA82AB83794B12255E851882851983121A
:103EA3003F7112403CE50890036AF0742A12138DA7
:103EB300123F6A12403CE509900362123F7874CEC8
:103EC30055094480C0E0741212138DD0E0F07401E0
:103ED300250A900388F0740F12138D7402F0742A6C
:103EE30012138D124030740712138DE8F0A3E912F8
:103EF3003FAF741012138D12403C740512138DE5FD
:103F030008F0741B12138DE4F090037D740FF07AA4
:103F13007D7B03795412255E90037C740FF07A7CC9
:103F23007B03794712255E90037CE0C3940F5023F3
:103F3300740512138DE0C0E0740212138DD0E0F00B
:103F4300740412138D7401F00412138DAA82AB83CF
:103F5300122582740512138DAA82AB831225647411
:103F63001E1210F2022D96124A0390036B22124A7C
:103F73000390037522F0EEFCEFFD7A897B03122593
:103F8300462274F7120B0AEB90037FF012166A8035
:103F930005740D1210F27F01020DC0123FA4A3E0BD
:103FA3002212401DA322EAF0A3EBF022124023F8D1
:103FB300A3E0F92274F7120B0A74F8121156EAFE01
:103FC300EBFF7900900377E06408704485188285DD
:103FD300198374FDF0A374FFF012175474021213C3
:103FE3008D123FA9740512138DE4123FA4E0C0E0C3
:103FF300740412138DD0E0124018C0E0740612133B
:104003008DD0E0F0740712138DE41240C31217A889
:104013007408023F9612401DE022F08E828F8322A5
:10402300124028E022F085188285198322124A0360
:1040330022E0F8A3E0F9125FD0E8F0A3E9F022123E
:1040430010F27F02020DC0C082C083900349740E38
:10405300F0A37415F09003EF7402F0A37418F090BA
:10406300034D7444F0A37415F090034F740EF0A342
:104073007415F0900351744AF0A37415F0023C5C7C
:1040830074F4120B0A74F91211568A088B098C0AFC
:104093008D0B85188285198378081212FE74041219
:1040A300138DE9F0740512138DE4F0740612138D69
:1040B300E41240C312143074070241E3E8F0A3E9A9
:1040C3001240C722124028AA82AB832274F4120B37
:1040D3000A8A088B098A828B83125FDEEE4F700394
:1040E3000241DB90031212529960158A828B83A3DB
:1040F300A3E0F9EEFAEFFB9003131245151227A381
:104103008E828F83A3A3A3A3A3A3A3A3A3E0640289
:1041130070748E828F83A3A3A3A3A3A3E05402701E
:10412300030241AD850882850983A3A3E064E960A6
:10413300798E828F83A3A3A3A3A3A3A3A3A3A3E0A3
:1041430070149014C3E0048E828F83A3A3A3A3A34C
:10415300A3A3A3A3A3F08E828F83A3A3A3A3A3A349
:10416300A3A3A3A3E0141241DDA3A3A37404F090BB
:1041730014C4125A19E8F0A3E9126AF28B0BEA4548
:104183000B70031264D08E828F83A3A3A3A3A3A374
:10419300A3A3A3E0640260128E828F83A3A3A3A3CD
:1041A300A3A3A3A3A3E06406702E8E828F83A3A38D
:1041B300A3A3A3A3E0A2E0501F850882850983A3DC
:1041C300A3E0F9EEFAEFFB12268A8E828F83A3A374
:1041D300A3A3A3A3E054FEF0800912442422740D88
:1041E3001210F27F04020DC074EC120B0A74DD127C
:1041F3001156EAFEEBFF8C088D09743712138D7884
:104203000C12132B750A00740512138DAC82AD8347
:1042130012260C741212138DE07008741512138D8C
:10422300E06020740512138DE0A2E6501E8E828F8B
:1042330083A3A3A3A3A3A3A3A3A31257131217DEBA
:10424300E96008790312252E02440A740512138DBE
:10425300E0540C64047005750B018003750B00E0DA
:10426300A2E55035750A01E50BA2E0402C12175A5E
:104273008A108B11A810A911123E1AE0687003A3CB
:10428300E0696015740512138D126FD112570F1266
:104293002696E96004790480AC740512138DE0A2BC
:1042A300E65022740612138DE0540370187405123D
:1042B300138DE0540C640C600CE0540C640860052E
:1042C3007510018003751000740512138DE05403FB
:1042D300F8740268700C126FD112570F1225FA028C
:1042E300440A740168703AE510A2E05003124412C4
:1042F300740512138DA882A983740312138DE8F039
:10430300A3E91249F785188285198312441CE0C07A
:10431300E0740212138DD0E01240C312277A0244D4
:104323000AE8600302440A90035FE0640170108EA0
:10433300828F83A3A3A3A3A3A3E070030242987471
:104343002212138D74021249F7741A12138D12403C
:104353003CE510A2E05008740512138D124412E5D7
:104363000BA2E0506AEE240FF582EF126695C0E0CF
:10437300741712138DD0E0F0900314125299700346
:1043830002440A12175A8A128B13A812A913741A19
:1043930012138DE0687003A3E069706B780C121040
:1043A300BD780A1210C978081210C5A910740C122E
:1043B300138DAC82AD83742112138DAA82AB8390CB
:1043C30003141245121227A374071210F2803878CF
:1043D3000C1210BD780A1210C978081210C5900388
:1043E30075120E8FEE2412F582EF1263C37423123B
:1043F300138DAC82AD83740E12138DAA82AB83121C
:10440300267E74091210F274231210F2026ABD128E
:104413006FD1125BAE12260622E8F0A3E912442400
:104423002212442822F08E828F83A3A3A3A3A3A3E3
:104433002274F7120B0A121F58023F9974F7120BDA
:104443000A121F6A023F99C082C083121F64023C92
:104453005C74F7120B0A121F70023F9974F7120B68
:104463000A740912138DE0F50878081210C9121F97
:104473007C7401023F96C082C083121F88023C5C99
:10448300C082C083121F8E023C5C74F7120B0A12A7
:104493001F94023F9974F7120B0AEAFEEBFF890897
:1044A3007401650870147900121586902BA1E493AA
:1044B300FC7900EEFAEFFB1214FC023F9974F4123C
:1044C3000B0A74F9121156E9FE8A088B098C0A8DBE
:1044D3000B741312138D12571390063C12529960EA
:1044E30027EE851882851983F0740112138D7808DD
:1044F3001212FEEAF8EBF9740512138D1240BF9005
:10450300063C1245121227A30240BAFB90034BE06C
:10451300F8A3E0F58388822274F7120B0A901470D3
:10452300E0F97E00800B126681540D64017001195D
:104533000E1247155003E970ED023F9974F7120B01
:104543000A901471E0F97E00800B126681548D6429
:10455300817001190E1247155003E970ED023F995E
:1045630074F2120B0A890BE975F006A4240CF50802
:10457300E5F01237BE8A0CE508250CFAE50934008C
:10458300FB121DC68A0C8B0DAE0CAF0DEE4F6027D0
:10459300AC08AD097900121D2A123E1AE50BF0EEA4
:1045A3002508F8EF3509F98E828F83A3A3A3A3A36C
:1045B300A3A3A3A312403CEEFAEFFB02550E74F63D
:1045C300120B0AEAFEEBFF1214D890146FE0F8E91D
:1045D300C39840099003451257131214DEEE2402C8
:1045E300F8EF125D23900347125BDD900347E0046D
:1045F300F0EEFAEFFB1214E4850882850983E002EA
:1046030061D9C082C08379009003458001091257A4
:10461300138A828B83E582458370F2023C5C74F7D4
:10462300120B0AEAFEEBFFEE4F605690034512525F
:1046330099604E888289837A007B00EE65827003DD
:10464300EF6583600FAA82AB83124687E5824583B9
:10465300602F80E7900345124693687002EF698EDE
:10466300828F8370081240309003458003126ACF13
:1046730012403CEEFAEFFB12274AEEFAEFFB121D53
:10468300CC023F9912468B22124A078882898322E1
:10469300124A03EE22C082C08390034580048882BD
:1046A3008983125299600B88828983124D4BEC4D9A
:1046B30070EC8A828B83E4F0A3F0E8496006888279
:1046C30089838003900345123FA9023C5C74F7126F
:1046D3000B0A90034580048A828B831247104B6038
:1046E300257E0080010E12471550ECEE75F006A4EE
:1046F300FCADF0EA2CFCEB3DFDEC2410F582ED1251
:10470300476570E180047A007B00023F99125BB237
:10471300EA2212476EEEC3982274F7120B0A7D0049
:1047230080010D12476AEDC3985034ED75F006A46D
:10473300FEA8F0E8FFEA2EFEEB3FFFEE2410F58221
:10474300EF12476570DCED75F006A4FEE8FFEA2E74
:10475300FAEB3FFBEA2411F582EB1266954CF0026B
:104763003F991266A1692212476E22126FDBEB3466
:1047730000F583E0F82274F6120B0A1215FE7A0094
:104783007B008025EAF8EBF9E875F006A4F8ACF0B5
:1047930075F006E9A42C125B87126E9CA3E4125CED
:1047A3007DF0A3126EA2127019902B8C12343D402F
:1047B300D37A007B00801C8A088B09740378081263
:1047C300128512563BA374FEF0A304125A5DA3E4B0
:1047D300127019902B9512481840DC7A007B0080E8
:1047E3001D8A088B097403780812128574B4126346
:1047F3000D7413126B5474FEF0A304127019902BF2
:104803009B12481840DB902B9FE493900353F012C4
:104813004822024045E493F8C3EA98EB9400227CD3
:10482300E87D037A107B009003C2E0F9121E802218
:1048330074F0120B0A74F51211568A088B09890A4F
:104843008C0BE9A2E050147508FC7509FFA2E15036
:1048530005D2E40248F5D2E30248F51254FA700394
:10486300A3E069700579000249C2AC0A7902AA087B
:10487300AB091215DAE960EDE50AF50C780C1210B4
:10488300C979027CFE7DFFAA08AB0912527512108A
:10489300F2E960030249C0E50AC2E5F50A9003B5EF
:1048A300E07051E50AA2E6404B740312138DAC820B
:1048B300AD83AA08AB091226CCE97032124B968A53
:1048C3000C8B0DA80CA90DE8FEE9FFE8496025EE65
:1048D30024020A0AEF12314D601AEE2402FCEF346F
:1048E30000FD740312138DAA82AB83122546E50AD9
:1048F300D2E5F50A900348E0F50C900368E0F50E65
:10490300A3E0F50F780E1210C57D017C00900348DB
:10491300E0F9AA0EAB0F12159274021210F2E9F825
:10492300900348E004F0E860030249C0E50AA2E509
:104933005004740E80027406C0E0740112138DD00B
:10494300E0125FEF8A0E8B0FAE0EAF0FEE4F606972
:104953001249E01249F7888289837401F07478550B
:104963000AA3126FE1E50C126FE1A3E508F0E50974
:104973001249CFE4F0E50AA2E5500F740312138D38
:10498300AC82AD83E824061249C68E828F83A3A32B
:1049930074FDF0A374FFF0E50B6015902BA2E49374
:1049A300F8E50BC3985009EE2413125FC2E50BF030
:1049B300EEFAEFFB12141E80067910800279C77499
:1049C3000B8049FAE93400FB122546228882898349
:1049D300A3A3A3A31249DB22125D56A322EE24173D
:1049E300125FD37401F0121754EE241A125FD3EA44
:1049F300F0A3EB22F0126FD53400124A0122F583A3
:104A0300124A0722E0F8A3E0F922740D1210F27F94
:104A130008020DC074F6120B0A7A007B101264DDD3
:104A230060089003D47401F080299006DBE06401F0
:104A33009014C17006E0FC79018004E0FC79037AEC
:104A4300007B001214FC902B8A124A597A007B10C7
:104A5300124A67024045124A5D22E493FC740193B3
:104A6300FD227B009003C2E0F9121E7A2274EC123D
:104A73000B0A8A088B098C0C8D0D890E7414121382
:104A83008D125454741612138DE0F510A3E0F51132
:104A93001217DEE960077AFF7BFF024B939014C085
:104AA300E064026003024B867900AA08AB09121581
:104AB300E0A90E1215D48A128B13AE12AF13EE4F68
:104AC3007003024B6E8E828F83A3A3A3A3A3E06420
:104AD300018E828F83A3A370691257138E828F83F3
:104AE300A3A3A3A3A3A3E054186043902BA0E49330
:104AF3008E828F83A3A3A3A3F0EA650C7003EB65F7
:104B03000D6014EA650A7003EB650B600AEA651031
:104B13007003EB6511701F78101210C5AC0AAD0B52
:104B2300AA0CAB0D1218DA74021210F2800890036B
:104B3300671264C7A3F074FE6A700374FF6B601D91
:104B4300804EA3A3A3E0640360298E828F83A3A373
:104B5300A3A3A3E0640470057AFE024A9B8E828FAE
:104B630083A3A3A3A3A3E0640270089003B4E06447
:104B7300027010124B968B0BEA450B6006AA08AB2A
:104B830009800DAA08AB099003491245121227A305
:104B9300026ABD90037512527B12189E2274F7129B
:104BA3000B0AEAFEEBFF1213D0E9700AEEFAEFFBF1
:104BB3001213DCE96006EEFAEFFB80047AFE7BFF5A
:104BC300023F9974F0120B0A8A0A8B0B8C0E8D0F1D
:104BD30089097508001217DEE979006003024D3D6B
:104BE300AA0AAB0B1215E0A9091215D48A0C8B0D76
:104BF300AE0CAF0DEE4F60198E828F83A3A3A3A3D8
:104C0300A3E0640270559003B4E064027003024DA4
:104C13003BAA0AAB0B90034F1245121227A31213A0
:104C2300E28A0C8B0DA80CA90DE8497003024D3BD9
:104C330088828983A3A3A3A3A3E0A2E04003024D38
:104C43003B750C01A2E150687901AC0AAD0BAA0EC9
:104C5300AB0F12152CE97064024D3B8E828F83A338
:104C6300A3A3A3A3E064037005750C0280528E8294
:104C73008F83A3A3A3A3A3E064016003024D3B902E
:104C83000375124D4B8E828F831250A08A0C8B0DAD
:104C9300A80CA90DE84960D1902B99E493FA888276
:104CA3008983E0C39A50C2A3E06003024D3B80B9FD
:104CB30088828983A3A3A3A3A3D2E1F0EE4F603A32
:104CC3008E828F83A3A3A3A3A3A3E05418602B75A1
:104CD30008018E828F83A3A3120E8F750CFE750DB0
:104CE300FF780C1210C57900AC0AAD0BAA0EAB0FFE
:104CF3001215F274041210F2803E900368E0650E00
:104D03007004A3E0650F7014902BA1E493FCA90930
:104D1300AA0AAB0B1214FC750801801CA90CAC0A7F
:104D2300AD0BAA0EAB0F12152CE9700C750801A977
:104D330009AA0AAB0B121586A908024A12E50C242C
:104D430015F582E50D125FD6125A332274EA120B5F
:104D53000A74F01211568A0C8B0D8C088D09742677
:104D630012138DE0F514A3E0F5157512069003F503
:104D73001252996023900375124D4BAA08AB091286
:104D830018C88A108B11EA4511600D8A828B83A3A0
:104D9300E070057900025088E50C241DF50EE50D41
:104DA3003400F50F850E82125285F51388828983AC
:104DB300A3A3A3E0FA88828983A3A3A3A3E0F9EAC8
:104DC3002400FEE439FFAA08AB0912158C850E8274
:104DD300850F831250C3E029F50BE50AA2E55003C2
:104DE30075120E7487550A70177418550A64186083
:104DF3000FE50C2417F582E50D1266956512600721
:104E0300790112252E808C530A78C3EE94F8EF941F
:104E1300FF501D7900EEFAEFFB1250926012888268
:104E23008983A3A3A3A3A3A3E054186003024D960D
:104E330078081210C57D001250B61210F2E9F8740A
:104E430003687003024D96E86003024F017418551E
:104E53000A7003024FB6E50AD2E0F50AA2E4500451
:104E6300D2E1F50AA90A12570C12509260538882B4
:104E73008983A3A3A3A3A3A3E054186044888289CE
:104E830083A3A3A3A3A3E064017036E510451160D7
:104E930030900375124D4B888289831250A08A0E7D
:104EA3008B0FA80EA90FE849601788828983A3E0B6
:104EB300600F851082851183A31261E45003024DB4
:104EC30096E50AF50E780E1210C91250A91210F2C7
:104ED300E9702B7C007D0085148285158374FFF0B7
:104EE300A3F0850C82850D83A3A3A3A3A3A3A3A3EC
:104EF300E06003124D40A90B12570C121F82851458
:104F030082851583E0F47003A3E0F460399003B461
:104F1300E064027003024D96125445E0FAA3E012D6
:104F2300450E1227A3EA65087003EB6509600302C7
:104F33004D96EEFAEF12450E1227A38514828515BE
:104F430083EAF0A3EBF078081210C57D011250B686
:104F53001210F2A90AEEFAEFFB1215E08A088B0988
:104F6300A808A909900368E0687003A3E0696003D7
:104F7300025079EEFAEFFB1213E28A088B09A808B4
:104F8300A909E849606E88828983A3A3A3A3E06487
:104F930001600D88828983A3A3A3A3E064027054F4
:104FA300851882851983AC82AD83EEFAEFFB122656
:104FB300CC8055900361E0600FE50AF50E780E1280
:104FC30010C91250A91210F2E50AF50E780E12104C
:104FD300C979027CFE7DFFEEFAEFFB1252751210C7
:104FE300F2E96003024F0185148285158374FFF093
:104FF300A3024F48121754EAFCEBFD85188285196A
:1050030083AA82AB83122546850C82850D83A3A3D5
:10501300A3A3A3A3A3A3E06401700F124D407408DC
:1050230012138DAA82AB8312254612524F125E5B76
:105033004430F50878081210C9740112138D858263
:105043000885830978081210C5740B12138D8582A5
:105053000885830978081210C5E513F50878081246
:1050630010C97900EEFCEFFD12570C1215267406D9
:105073001210F2024D9612524F125FC51250C3E541
:105083000BF012176C74101210F27F0E020DC01287
:1050930015D48A0E8B0FA80EA90FE84922A3A312D9
:1050A3005BB21218C8227901AC08AD09125BA712D2
:1050B300527522AC0BA913125BA71215927402222C
:1050C300125E63A3A3A3A32274F0120B0A74F0125B
:1050D30011568A0C8B0DECFAEDFB750F089003F556
:1050E30012529960141261DD8A828B83E5824583B3
:1050F3006007A3E0700302524A12524F3400125267
:1051030085F50B88828983125258E0FBEC2400FE5C
:10511300E43BFF88828983A3A3125258A3A3E0FB35
:10512300ECF508E43BF50988828983A3A3A3A3A331
:10513300A3A3E0F50EE50AA2E45003750F10A2E560
:1051430050067408250FF50F748F550A700FE50C80
:105153002417F582E50D126695650F600879011233
:10516300252E02524A530A707800E50AA2E450221F
:1051730012524F1266952408FCA3E03400FD740814
:1051830012138DAA82AB831225467808E50AC2E47E
:10519300F50AE50AA2E5502812524F12669528F83F
:1051A300A3E03400F9E82408FCE93400FD85188203
:1051B300851983AA82AB83122546E50AC2E5F50A5F
:1051C300AC0EA90BEEFAEFFB121598E9F87403681D
:1051D3006075900368E06E7003A3E06F605EE87033
:1051E30054E50AF50F780F1210C91252661210F225
:1051F300E97054780A1210C9740112138D85820C58
:1052030085830D780C1210C5740B12138D85820CD7
:1052130085830D780C1210C5E50BF50A780A121078
:10522300C9A90EAC08AD09EEFAEFFB1215267406F8
:105233001210F28012740468700D80B7780A12108D
:10524300C91252661210F27410024A0FE50C241DA3
:10525300F582E50D22A3A3A3E0FC88828983A3A39F
:10526300A3A322790112544C125FD612527B12521D
:105273007522121550740122E0FCA3E0FDAA08ABCD
:105283000922F58312468BA3E0F50A88828983A35A
:10529300A3E022900339125C0E2274E8120B0A7405
:1052A300F5121156EAFEEBFF8C088D09891474235D
:1052B30012138DE0F50F742412138DE0F512A3E0A1
:1052C300F513742612138DE0F516A3E0F517742871
:1052D30012138DE0F50EA90F12159E8A108B11740F
:1052E3000112138D7408F0E50EA2E450037410F05C
:1052F300E50EA2E55004E02408F0851882851983A1
:10530300AA82AB831217C68A0C8B0DEA450D700374
:1053130002542CEA2417F582EB12543E121754E57B
:105323000C241AF582E50D125FC5123FA97403120E
:10533300138DAC82AD83AA10AB111226CCE9601D8C
:10534300125436740312138DA882A983E50C241812
:10535300F582E50D125FC5E8F0A3E98024E50EA20E
:10536300E4501FE5106E7003E5116F70151254368B
:10537300E50C2418F582E50D125FC5E512F0A3E5EF
:1053830013F0125445125454850A82F5837402F0C3
:10539300A3E50E12545CE50FF0EE850A82850B83BC
:1053A300A3A3A3F0EF850A82850B83A3A3A3A31270
:1053B300545CA3A3A3E508F0E509850A82850B8362
:1053C300A3A3A3A3A3A3F0AA10AB1112158CE925E1
:1053D30014850A82850B83A3A3A3A3A3A3A3F075B8
:1053E3000800E50EA2E45011AC12AD13E50A24083F
:1053F300FAE50B1249C8750808E50EA2E55014AC8E
:1054030016AD17E50A2508F8E50B3400F9E824087A
:105413001249C6850C82850D83A3A3E510F0A3E58D
:1054230011F0AA0CAB0D12141E740B1210F27F10A4
:10543300020DC0E50C2416F582E50D125FD674014A
:10544300F02212544C125FD622E50C126FDCE50DEC
:1054530022E0F50AA3E0F50B22F0850A82850B838F
:10546300A3A32274F2120B0A8A088B09ECFEEDFF48
:10547300890A79001254FA7003A3E0697004790170
:105483008073750B01900368E065087004A3E06501
:1054930009601F750B00780B1210C9A90AEEFCEF07
:1054A300FDAA08AB0912181A74011210F2E9F50BE0
:1054B30080417900EEFAEFFB1215D4EA4B602B8A98
:1054C300828B83A3A3A3A3A3A3E05418601C750832
:1054D300FE7509FF78081210C58A828B83A3A31275
:1054E3000E8F126DF11210F280097901EEFAEFFBC3
:1054F3001214B4A90B80141215E08A0C8B0DA80C9E
:10550300A90D900368E068221210F27F06020DC015
:1055130074F4120B0A7508FC7509117A10126AF9F2
:105523008B0BEA450B7003124822900353E014F0EF
:10553300700C902B9FE493900353F01215EC7E00B4
:105543007F00806C850882850983A3A3A3A3E06001
:1055530059F46056E5082404F582E5091264C17024
:1055630049850882850983A3A3A3A3A3E0640370E9
:10557300197902850882850983124D4B8508828536
:105583000983A3A312571312152C85088285098357
:10559300A3A3A3A3A3E06401601085088285098304
:1055A30074FEF0A30412566DE4F01239641237B698
:1055B300902B8E126C55408C7E007F008039121622
:1055C300FA8E088F097403780812128574742508FB
:1055D300FC74133509FD7A387B151216E8EA4B7013
:1055E300DD8E088F097403780812128512563B1258
:1055F3006E9CE4F0123964902B95E493F8C3EE9813
:10560300EF9400501B8E088F0974037808121285DB
:10561300125643E82407F582E91264C170D680A1CB
:105623007E007F00800A12564E600214F012396425
:10563300126C5240F10241E612564388828983225A
:1056430074742508F874133509F922EEF8EFF9E8B4
:1056530075F006A4F8AAF075F006E9A42AF9741403
:1056630028F582741339F583E022125674A3A3A399
:1056730022F0850882850983A3A32274F7120B0AFB
:1056830074E1121156ECFEEDFF750800EE4F6072E7
:105693008A828B83E0241C1264F212529960638A1B
:1056A300828B83125713851882851983AC82AD834D
:1056B300EA241BF582EB1263C3EA241CF582EB1286
:1056C300570F12173C740B12138D1257177003A345
:1056D300E069702E740212138DE064017024741D4E
:1056E30012138D124512E064017017741D12138D8D
:1056F300124514A3A3E0F88E828F83E068700375CC
:105703000801A908741F023F9612544C3400F58314
:10571300125BB22212310BE0682274F4120B0AE915
:105723007024790090034D1245121227A38A0A8B25
:105733000BAE0AAF0B74FE6E700374FF6F701A909A
:105743002B9CE4936013790190034D1245121227A9
:10575300A38A0A8B0BAE0AAF0B12178A023AB874EC
:10576300F6120B0A74F31211561227208A088B09BA
:10577300AE08AF09900368E06E7003A3E06F60E9C1
:10578300121760EA6E7002EB6F60DEEEFAEFFB1247
:1057930017DEE970D4EE4F60D0851882851983E453
:1057A300F00412138DEEF0A3EF1257C5E970BA742B
:1057B300FE6E700374FF6F60B0EEFAEFFB740D02C0
:1057C30040421240C712262A22C082C08312178A7F
:1057D300023C5C7F0A020DC074F2120B0AEAFEEB74
:1057E300FF8C0A8D0B8908740E12138DE0F5097472
:1057F300FC6E700374FF6F7005790002550E79001B
:105803001215E08A0C8B0DAE0CAF0D900368E06EA1
:105813007003A3E06F7006E509A2E650DCA9091244
:105823006CDF706179007AFE7BFF126CDF70567457
:105833001855097003025912780079008003123356
:1058430005902B8E1232FC4003025912E8FAE9FB51
:10585300EA75F007A4FAACF075F007EBA42CFB741F
:10586300022AF58274123BF583E0541870D0E87570
:10587300F007A4F8AAF075F007E9A42AF974FC2844
:10588300F8741139F988828983A3A3A3A3A3A3E09E
:10589300541860097418550970030257FC888289EB
:1058A30083EEF0A3EFF074FE650A700474FF650BDA
:1058B3006003125A3988828983A3A3A3A3A3A3E510
:1058C30009F0A2E0500D88828983A3A3A3A3A3A315
:1058D300D2E2F07401650888828983A3A3A3A3A3FA
:1058E30070387401125A5DE054186028902BA0E4BC
:1058F3009388828983A3A3A3A3125A271218C88B60
:105903000DEA450D60030257FC7800790080397970
:10591300020257FE900367E080D7E0640170030240
:1059230057FC88828983A3A3A3A3A3A3E05418608D
:1059330007902BA0E4938004900366E01249CFE51F
:1059430008F00257FC123305902B96E493FAC3E850
:105953009AE9940040030257FC7A007B00804BEAEB
:10596300FCEBFDEC75F007A4FCAEF075F007EDA4BD
:105973002EFD74FE2CF58274113DF583125FDEE873
:10598300FCE9FDEC75F017A4FC85F00975F017ED43
:10599300A42509FD748C2CF58274103DF583E06E0B
:1059A3007003A3E06F609E123839902B8E1237C6B6
:1059B30040AD124A59EC6A7002ED6B7088E875F0DD
:1059C30017A4F8AAF075F017E9A42AF9748C28FE35
:1059D300741039FF7C177D007900EEFAEFFB121D7E
:1059E3002A8E828F83125A3F900375125A19A3A3EA
:1059F300A3A3A3A3E8F0A3E9125A1F7401F0EE24B2
:105A03000E125FC27401125A471208B2EE240D122D
:105A13005FC2E8025944123E2BA3A322F0EE240FE7
:105A2300125FD322F0125A30AA0AAB0B22900375ED
:105A3300E0FCA3E0FD2288828983A3A3E50AF0A307
:105A4300E50BF022F0125A4C22902B99E493240197
:105A5300F8E43400F97A027B00221249DBA32274B2
:105A6300ED120B0A8A088B09890E125B90400579A7
:105A730005025B5E121FCAAA08AB09125C62902B77
:105A83008C125B61650A7003E9650B70077AFE7B14
:105A9300FF125C62902B8CE4125B69E50A98E50BBC
:105AA300994003025B5C125B6D6012E50A75F006B8
:105AB300A4F875F006E50B125BB8121DCCE50E6079
:105AC30018E50A75F006A4F8AAF075F006E50B12BE
:105AD3005BE4701A7901025B5EE50A75F006A4F8CF
:105AE300AAF075F006E50B125BC5E4F0A3F0E50A36
:105AF30075F006A4F8AAF075F006E50B125B85A312
:105B0300125E7188828983A3AA82AB83125BD38AD4
:105B1300828B83E0603F125B6D603A8E108F11754C
